{
  "contractName": "AggregateSignature",
  "abi": [
    {
      "inputs": [],
      "payable": false,
      "stateMutability": "nonpayable",
      "type": "constructor"
    },
    {
      "constant": true,
      "inputs": [
        {
          "internalType": "uint256",
          "name": "num",
          "type": "uint256"
        }
      ],
      "name": "make_privatekey",
      "outputs": [
        {
          "internalType": "bytes32",
          "name": "",
          "type": "bytes32"
        }
      ],
      "payable": false,
      "stateMutability": "pure",
      "type": "function"
    },
    {
      "constant": false,
      "inputs": [
        {
          "internalType": "bytes32",
          "name": "privatekey",
          "type": "bytes32"
        }
      ],
      "name": "public_private_key1",
      "outputs": [
        {
          "internalType": "bytes32",
          "name": "",
          "type": "bytes32"
        }
      ],
      "payable": false,
      "stateMutability": "nonpayable",
      "type": "function"
    },
    {
      "constant": false,
      "inputs": [],
      "name": "r1_Generate",
      "outputs": [
        {
          "internalType": "uint256",
          "name": "",
          "type": "uint256"
        }
      ],
      "payable": false,
      "stateMutability": "nonpayable",
      "type": "function"
    },
    {
      "constant": false,
      "inputs": [
        {
          "internalType": "uint256",
          "name": "r_2",
          "type": "uint256"
        },
        {
          "internalType": "uint256",
          "name": "r_3",
          "type": "uint256"
        }
      ],
      "name": "s1_Generate",
      "outputs": [
        {
          "internalType": "uint256",
          "name": "",
          "type": "uint256"
        }
      ],
      "payable": false,
      "stateMutability": "nonpayable",
      "type": "function"
    },
    {
      "constant": false,
      "inputs": [
        {
          "internalType": "bytes32",
          "name": "privatekey",
          "type": "bytes32"
        }
      ],
      "name": "public_private_key2",
      "outputs": [
        {
          "internalType": "bytes32",
          "name": "",
          "type": "bytes32"
        }
      ],
      "payable": false,
      "stateMutability": "nonpayable",
      "type": "function"
    },
    {
      "constant": false,
      "inputs": [],
      "name": "r2_Generate",
      "outputs": [
        {
          "internalType": "uint256",
          "name": "",
          "type": "uint256"
        }
      ],
      "payable": false,
      "stateMutability": "nonpayable",
      "type": "function"
    },
    {
      "constant": false,
      "inputs": [
        {
          "internalType": "uint256",
          "name": "r_1",
          "type": "uint256"
        },
        {
          "internalType": "uint256",
          "name": "r_3",
          "type": "uint256"
        }
      ],
      "name": "s2_Generate",
      "outputs": [
        {
          "internalType": "uint256",
          "name": "",
          "type": "uint256"
        }
      ],
      "payable": false,
      "stateMutability": "nonpayable",
      "type": "function"
    },
    {
      "constant": false,
      "inputs": [
        {
          "internalType": "bytes32",
          "name": "privatekey",
          "type": "bytes32"
        }
      ],
      "name": "public_private_key3",
      "outputs": [
        {
          "internalType": "bytes32",
          "name": "",
          "type": "bytes32"
        }
      ],
      "payable": false,
      "stateMutability": "nonpayable",
      "type": "function"
    },
    {
      "constant": false,
      "inputs": [],
      "name": "r3_Generate",
      "outputs": [
        {
          "internalType": "uint256",
          "name": "",
          "type": "uint256"
        }
      ],
      "payable": false,
      "stateMutability": "nonpayable",
      "type": "function"
    },
    {
      "constant": false,
      "inputs": [
        {
          "internalType": "uint256",
          "name": "r_1",
          "type": "uint256"
        },
        {
          "internalType": "uint256",
          "name": "r_2",
          "type": "uint256"
        }
      ],
      "name": "s3_Generate",
      "outputs": [
        {
          "internalType": "uint256",
          "name": "",
          "type": "uint256"
        }
      ],
      "payable": false,
      "stateMutability": "nonpayable",
      "type": "function"
    },
    {
      "constant": false,
      "inputs": [],
      "name": "Uc_SignVerify",
      "outputs": [
        {
          "internalType": "bool",
          "name": "",
          "type": "bool"
        },
        {
          "internalType": "bool",
          "name": "",
          "type": "bool"
        },
        {
          "internalType": "bool",
          "name": "",
          "type": "bool"
        }
      ],
      "payable": false,
      "stateMutability": "nonpayable",
      "type": "function"
    },
    {
      "constant": true,
      "inputs": [
        {
          "internalType": "uint256",
          "name": "s_1",
          "type": "uint256"
        },
        {
          "internalType": "uint256",
          "name": "s_2",
          "type": "uint256"
        },
        {
          "internalType": "uint256",
          "name": "s_3",
          "type": "uint256"
        }
      ],
      "name": "Uc_MutiSignGenerate",
      "outputs": [
        {
          "internalType": "uint256",
          "name": "",
          "type": "uint256"
        }
      ],
      "payable": false,
      "stateMutability": "view",
      "type": "function"
    },
    {
      "constant": false,
      "inputs": [
        {
          "internalType": "uint256",
          "name": "S",
          "type": "uint256"
        }
      ],
      "name": "Uv_MutiSignVerify",
      "outputs": [
        {
          "internalType": "bool",
          "name": "",
          "type": "bool"
        }
      ],
      "payable": false,
      "stateMutability": "nonpayable",
      "type": "function"
    },
    {
      "constant": true,
      "inputs": [
        {
          "internalType": "uint256",
          "name": "s_1",
          "type": "uint256"
        },
        {
          "internalType": "uint256",
          "name": "s_2",
          "type": "uint256"
        },
        {
          "internalType": "uint256",
          "name": "s_3",
          "type": "uint256"
        }
      ],
      "name": "Uc_Blind_MutiSignGenerate",
      "outputs": [
        {
          "internalType": "uint256",
          "name": "",
          "type": "uint256"
        }
      ],
      "payable": false,
      "stateMutability": "view",
      "type": "function"
    },
    {
      "constant": true,
      "inputs": [
        {
          "internalType": "uint256",
          "name": "a",
          "type": "uint256"
        }
      ],
      "name": "hash",
      "outputs": [
        {
          "internalType": "bytes32",
          "name": "",
          "type": "bytes32"
        }
      ],
      "payable": false,
      "stateMutability": "pure",
      "type": "function"
    }
  ],
  "bytecode": "0x6080604052601760005560056002556040518060400160405280601c81526020017f426c6f636b436861696e4167677265676174655369676e617475726500000000815250600c9080519060200190610059929190610078565b5034801561006657600080fd5b5060016000540360018190555061011d565b828054600181600116156101000203166002900490600052602060002090601f016020900481019282601f106100b957805160ff19168380011785556100e7565b828001600101855582156100e7579182015b828111156100e65782518255916020019190600101906100cb565b5b5090506100f491906100f8565b5090565b61011a91905b808211156101165760008160009055506001016100fe565b5090565b90565b610c778061012c6000396000f3fe608060405234801561001057600080fd5b50600436106100f55760003560e01c806358e8c5b4116100975780639dbaf105116100665780639dbaf10514610386578063b189fd4c146103c8578063d09721861461040a578063d2b26d5614610456576100f5565b806358e8c5b4146102805780636f5a7691146102cc578063731bacd6146102ea5780637e7334fa14610340576100f5565b806334da2121116100d357806334da21211461019c5780634880b15d146101e857806356178aa314610206578063574799e51461023e576100f5565b80630f90e790146100fa57806317228ab51461013c57806329f37cc71461015a575b600080fd5b6101266004803603602081101561011057600080fd5b81019080803590602001909291905050506104ac565b6040518082815260200191505060405180910390f35b6101446104f7565b6040518082815260200191505060405180910390f35b6101866004803603602081101561017057600080fd5b810190808035906020019092919050505061051f565b6040518082815260200191505060405180910390f35b6101d2600480360360408110156101b257600080fd5b81019080803590602001909291908035906020019092919050505061054f565b6040518082815260200191505060405180910390f35b6101f0610659565b6040518082815260200191505060405180910390f35b61020e610681565b60405180841515151581526020018315151515815260200182151515158152602001935050505060405180910390f35b61026a6004803603602081101561025457600080fd5b81019080803590602001909291905050506107fe565b6040518082815260200191505060405180910390f35b6102b66004803603604081101561029657600080fd5b81019080803590602001909291908035906020019092919050505061082e565b6040518082815260200191505060405180910390f35b6102d4610938565b6040518082815260200191505060405180910390f35b61032a6004803603606081101561030057600080fd5b81019080803590602001909291908035906020019092919080359060200190929190505050610960565b6040518082815260200191505060405180910390f35b61036c6004803603602081101561035657600080fd5b8101908080359060200190929190505050610982565b604051808215151515815260200191505060405180910390f35b6103b26004803603602081101561039c57600080fd5b8101908080359060200190929190505050610ab1565b6040518082815260200191505060405180910390f35b6103f4600480360360208110156103de57600080fd5b8101908080359060200190929190505050610ae1565b6040518082815260200191505060405180910390f35b6104406004803603604081101561042057600080fd5b810190808035906020019092919080359060200190929190505050610b16565b6040518082815260200191505060405180910390f35b6104966004803603606081101561046c57600080fd5b81019080803590602001909291908035906020019092919080359060200190929190505050610c20565b6040518082815260200191505060405180910390f35b6000808290506000606482816104be57fe5b06905060008160405160200180828152602001915050604051602081830303815290604052805190602001209050809350505050919050565b60006003600a81905550600080548061050c57fe5b6001600a546002540a0990508091505090565b6000816004819055506000548061053257fe5b600160045460001c6002540a096007819055506004549050919050565b60008061055a610659565b9050600081905060008590506000859050600080548061057657fe5b600183840a096000548061058657fe5b600185860a096000548061059657fe5b600187880a09020290506000600c60405160200180828054600181600116156101000203166002900480156106025780601f106105e0576101008083540402835291820191610602565b820191906000526020600020905b8154815290600101906020018083116105ee575b505091505060405160208183030381529060405280519060200120905060008160001c90506001548061063157fe5b600954870960035460001c8285010203600d81905550600d5497505050505050505092915050565b60006001600981905550600080548061066e57fe5b60016009546002540a0990508091505090565b60008060008061068f610659565b9050600061069b6104f7565b905060006106a7610938565b905060008054806106b457fe5b600183840a09600054806106c457fe5b600185860a09600054806106d457fe5b600187880a0902029050600080600080600c60405160200180828054600181600116156101000203166002900480156107445780601f10610722576101008083540402835291820191610744565b820191906000526020600020905b815481529060010190602001808311610730575b505091505060405160208183030381529060405280519060200120905060008160001c90506000548061077357fe5b60018783016006540a09600d546002540a8a8b0a02141561079357600194505b6000548061079d57fe5b60018783016007540a09600e546002540a898a0a0214156107bd57600193505b600054806107c757fe5b60018783016008540a09600f546002540a88890a0214156107e757600192505b8484849b509b509b50505050505050505050909192565b6000816005819055506000548061081157fe5b600160055460001c6002540a096008819055506005549050919050565b6000806108396104f7565b9050600084905060008290506000859050600080548061085557fe5b600183840a096000548061086557fe5b600185860a096000548061087557fe5b600187880a09020290506000600c60405160200180828054600181600116156101000203166002900480156108e15780601f106108bf5761010080835404028352918201916108e1565b820191906000526020600020905b8154815290600101906020018083116108cd575b505091505060405160208183030381529060405280519060200120905060008160001c90506001548061091057fe5b600a54860960045460001c8285010203600e81905550600e5497505050505050505092915050565b60006005600b81905550600080548061094d57fe5b6001600b546002540a0990508091505090565b6000806001548061096d57fe5b60018486880101099050809150509392505050565b60008061098d610659565b905060006109996104f7565b905060006109a5610938565b90506000600c6040516020018082805460018160011615610100020316600290048015610a095780601f106109e7576101008083540402835291820191610a09565b820191906000526020600020905b8154815290600101906020018083116109f5575b505091505060405160208183030381529060405280519060200120905060008160001c90506000805480610a3957fe5b600185860a0960005480610a4957fe5b600187880a0960005480610a5957fe5b6001898a0a0902029050600080896002540a8302905060008385016008540a8486016007540a8587016006540a0202905080821415610a9b5760019250610aa0565b600092505b829950505050505050505050919050565b60008160038190555060005480610ac457fe5b600160035460001c6002540a096006819055506003549050919050565b600080826040516020018082815260200191505060405160208183030381529060405280519060200120905080915050919050565b600080610b21610938565b90506000849050600084905060008390506000805480610b3d57fe5b600183840a0960005480610b4d57fe5b600185860a0960005480610b5d57fe5b600187880a09020290506000600c6040516020018082805460018160011615610100020316600290048015610bc95780601f10610ba7576101008083540402835291820191610bc9565b820191906000526020600020905b815481529060010190602001808311610bb5575b505091505060405160208183030381529060405280519060200120905060008160001c905060015480610bf857fe5b600b54850960055460001c8285010203600f81905550600f5497505050505050505092915050565b60008060015480610c2d57fe5b6001848688010109905080915050939250505056fea265627a7a72315820a091f8da7bc70c5450ecb31e8d7e943f12e73f4ae169796f38d2f2f8772f10c664736f6c63430005100032",
  "source": "pragma solidity ^0.5.16;\ncontract AggregateSignature {\n  uint p=23;//a big prime number\n  uint fai_p;\n  uint g=5;//a random multiplication generator\n\n  bytes32 x1;//private key\n  bytes32 x2;\n  bytes32 x3;\n  \n  uint y1;//public key\n  uint y2;\n  uint y3;\n\n  uint k1;\n  uint k2;\n  uint k3;\n  \n  string message=\"BlockChainAggregateSignature\";\n  \n  uint s1;//to be caculated\n  uint s2;\n  uint s3;\n\n  \n//----------------------------------------------------------------------------------------  \n\n//----------------------------------------------------------------------------------------  \n\n  constructor()public{\n  fai_p=p-1;\n\n  }\n  \n//----------------------------------------------------------------------------------------  \n\n    function make_privatekey(uint num) public pure returns(bytes32){\n    uint random=num;\n    uint a=random%100;\n    bytes32 privatekey=keccak256(abi.encodePacked(a));\n    return privatekey;\n}\n//----------------------------------------------------------------------------------------  \n\n  function public_private_key1 (bytes32 privatekey) public returns(bytes32){\n  x1=privatekey;\n  y1=mulmod(g**uint(x1), 1, p);\n  return x1;\n  }\n  \n  function r1_Generate () public returns(uint){\n  k1=1;\n  uint r1=mulmod(g**k1, 1, p);\n  return r1;\n  }\n\n  \n  function s1_Generate (uint r_2,uint r_3) public returns(uint){\n   uint r_1=r1_Generate();\n   uint r1=r_1;\n   uint r2=r_2;\n   uint r3=r_3;\n   uint R=mulmod(r1**r1, 1, p)*mulmod(r2**r2, 1, p)*mulmod(r3**r3, 1, p);\n   bytes32 hashmsg=keccak256(abi.encodePacked(message));// the message to be conveyed\n   uint hashnum=uint(hashmsg);\n   s1=(R+hashnum)*(uint(x1))-mulmod(r1,k1,fai_p);\n   return s1;\n  }\n//----------------------------------------------------------------------------------------  \n\n  function public_private_key2 (bytes32 privatekey) public returns(bytes32){\n  x2=privatekey;\n  y2=mulmod(g**uint(x2), 1, p);\n  return x2;\n  }\n  \n  function r2_Generate () public returns(uint){\n  k2=3;\n  uint r2=mulmod(g**k2, 1, p);\n  return r2;\n  }\n\n  function s2_Generate (uint r_1,uint r_3) public returns(uint){\n   uint r_2=r2_Generate();\n   uint r1=r_1;\n   uint r2=r_2;\n   uint r3=r_3;\n   uint R=mulmod(r1**r1, 1, p)*mulmod(r2**r2, 1, p)*mulmod(r3**r3, 1, p);\n   bytes32 hashmsg=keccak256(abi.encodePacked(message));// the message to be conveyed\n   uint hashnum=uint(hashmsg);\n   s2=(R+hashnum)*(uint(x2))-mulmod(r2,k2,fai_p);\n   return s2;\n  }\n//----------------------------------------------------------------------------------------  \n\n  function public_private_key3 (bytes32 privatekey) public returns(bytes32){\n  x3=privatekey;\n  y3=mulmod(g**uint(x3), 1, p);\n  return x3;\n  }\n  \n  function r3_Generate () public returns(uint){\n  k3=5;\n  uint r3=mulmod(g**k3, 1, p);\n  return r3;\n  }\n  \n  function s3_Generate (uint r_1,uint r_2) public returns(uint){\n   uint r_3=r3_Generate();\n   uint r1=r_1;\n   uint r2=r_2;\n   uint r3=r_3;\n   uint R=mulmod(r1**r1, 1, p)*mulmod(r2**r2, 1, p)*mulmod(r3**r3, 1, p);\n   bytes32 hashmsg=keccak256(abi.encodePacked(message));// the message to be conveyed\n   uint hashnum=uint(hashmsg);\n   s3=(R+hashnum)*(uint(x3))-mulmod(r3,k3,fai_p);\n   return s3;\n  }\n//----------------------------------------------------------------------------------------  \n  \n  function Uc_SignVerify () public returns(bool,bool,bool){\n \n  uint r1=r1_Generate();\n  uint r2=r2_Generate();\n  uint r3=r3_Generate();\n  uint R=mulmod(r1**r1, 1, p)*mulmod(r2**r2, 1, p)*mulmod(r3**r3, 1, p);\n  bool flag1;\n  bool flag2;\n  bool flag3;\n   bytes32 hashmsg=keccak256(abi.encodePacked(message));// the message to be conveyed\n   uint hashnum=uint(hashmsg);\n  if((r1**r1)*(g**s1)==mulmod(y1**(hashnum+R),1,p)) flag1=true;\n  if((r2**r2)*(g**s2)==mulmod(y2**(hashnum+R),1,p)) flag2=true;\n  if((r3**r3)*(g**s3)==mulmod(y3**(hashnum+R),1,p)) flag3=true;\n  return (flag1,flag2,flag3);\n  }\n  \n \n//----------------------------------------------------------------------------------------  \n\n  function Uc_MutiSignGenerate (uint s_1,uint s_2,uint s_3) public view returns(uint){\n  uint S;//MutiSignature\n  S=mulmod((s_1+s_2+s_3), 1, fai_p);\n  return S;\n  }\n  \n  function Uv_MutiSignVerify (uint S) public  returns(bool){\n  uint r1=r1_Generate();\n  uint r2=r2_Generate();\n  uint r3=r3_Generate();\n   bytes32 hashmsg=keccak256(abi.encodePacked(message));// the message to be conveyed\n   uint hashnum=uint(hashmsg);\n  uint R=mulmod(r1**r1, 1, p)*mulmod(r2**r2, 1, p)*mulmod(r3**r3, 1, p);\n  bool Mutiflag;\n  uint a=R*(g**S);\n  uint b=(y1**(hashnum+R))*(y2**(hashnum+R))*(y3**(hashnum+R));\n  if(a==b) Mutiflag=true;\n  else Mutiflag=false;\n  return Mutiflag;\n  }\n\n//----------------------------------------------------------------------------------------  \n  \n  function Uc_Blind_MutiSignGenerate (uint s_1,uint s_2,uint s_3) public view returns(uint){\n  uint S;//BlindMutiSignature\n  S=mulmod((s_1+s_2+s_3), 1, fai_p);\n  return S;\n  }\n  \n  \n//----------------------------------------------------------------------------------------  \n  function hash(uint a) public pure returns(bytes32){\n  bytes32 hash_a=keccak256(abi.encodePacked(a));\n  return hash_a;\n  }\n  \n}\n\n",
  "sourcePath": "/Users/wangxiao/AggregateSinature/contracts/AggregateSignature.sol",
  "compiler": {
    "name": "solc",
    "version": "0.5.16+commit.9c3226ce.Emscripten.clang"
  },
  "schemaVersion": "3.0.23",
  "updatedAt": "2020-06-01T12:04:58.876Z",
  "networkType": "ethereum",
  "devdoc": {
    "methods": {}
  },
  "userdoc": {
    "methods": {}
  }
}